:1000000035C04FC07BC04DC04CC04BC04AC049C07A
:1000100074C247C046C045C044C043C042C001008E
:10002000FF8E090212000101008064090400000033
:100030000000000012011001FF000008030431C697
:100040000001010203010C0354006F006B00650006
:100050006E0016034300680061006F00730020000B
:1000600057006500730074000403090411241FBEC7
:10007000CFE5D2E0DEBFCDBF10E0A0E6B0E0EEE31A
:10008000F8E002C005900D92AC36B107D9F720E038
:10009000ACE6B0E001C01D92A13AB207E1F749D247
:1000A000CCC3AECFA82FB92F80E090E041E050EA5A
:1000B000609530E009C02D9182279795879510F0C3
:1000C00084279527305EC8F36F5FA8F30895EADFB1
:1000D0008D939D930895A6E088279927AA9569F0A6
:1000E0000197E1F3B399FCCFB39BFECF81E0992751
:1000F000A6B3019611F0A871D9F70895CF93CFB7A1
:10010000CF93C395B39BE9F7B39B0BC0B39B09C0D7
:10011000B39B07C0B39B05C0B39B03C0B39B01C097
:10012000D3C00F92DF93C0918400DD27C557DF4F06
:10013000012EB39B03C0DF910F90E6CF2F930F9357
:100140001F934F932FEF4F6F06B303FB20F95F937D
:100150003F9350E03BE065C016B30126502953FDA4
:10016000C89556B3012703FB25F92F7306B3B1F0E9
:100170005027102713FB26F906B22230F0F000C0FA
:1001800016B3012703FB27F90126502906B22430B4
:10019000E8F54F77206816B30000F6CF50274F7D63
:1001A000206206B2102F000000C006B300265029BE
:1001B000102713FB26F906B2E2CF4F7B06B320646B
:1001C00000C0DACF01265029187106B269F14E7FBE
:1001D0002160012F16B328C0002650294D7F06B29A
:1001E0002260102F29C0012650294B7F06B22460BF
:1001F000012F2DC016B301265029477F286000002B
:1002000006B22EC04F7E06B3206130C0422706B32F
:10021000499300265029102706B24FEF13FB20F90F
:10022000297F16B379F2187159F10126502906B2C7
:10023000012703FB21F9237F06B371F20026502921
:100240003150D0F006B2102713FB22F9277E16B3E7
:1002500051F201265029012703FB06B223F92F7C16
:1002600049F2000006B3102713FB24F90026502999
:1002700006B22F7939F270CF10E21ABF002717C0EB
:100280003B503195C31BD04010E21ABF0881033C9C
:10029000F9F00B34E9F0209182001981110F12134B
:1002A000EDCF093651F10D3211F0013E39F70093CF
:1002B00089003F915F914F911F910F912F91DF9195
:1002C0000F90CAB7C5FD1DCFCF91CFBFCF91189565
:1002D00020918900222369F310918700112321F5D1
:1002E000343022F1309387002093830010918400F2
:1002F0003BE0311B3093840019C00091870001302E
:100300009CF40AE530916B0034FD11C000936B0042
:10031000C7E7D0E010C0052710E000C021C00527C6
:1003200010E0C89508BB14C03AE501C032ED032EB9
:10033000C0E0D0E032E017B31861C39A08B317BB2E
:1003400058E120E84FEF20FF052708BB27951795B8
:100350001C3F28F700004552B0F720FF05272795DE
:1003600008BB17951C3FB8F629913A9561F7077EAF
:1003700010918800110F08BBC250D04011F01093AB
:10038000820010E21ABF086017B3177E402F477E25
:1003900054E05A95F1F708BB17BB48BB8ACFCF93FF
:1003A000C62F20917200213081F4FC0180E08C1373
:1003B00003C08C2FCF9108959091700090839091FD
:1003C000710091838F5F3296F2CF462F50E070E03C
:1003D00060E016D2EECFCF93C62F462F50E020918B
:1003E0007200213059F48091730090917400841749
:1003F000950708F4C82F8C2FCF91089570E060E026
:10040000FFD1F9CFFC018CE690E0909386008093B9
:1004100085009181933041F130F49923A1F091301E
:10042000D1F080E008959830E0F781E08093720089
:10043000268137813093740020937300232B09F4B5
:1004400080E081950895828180936C008381809300
:100450006D0082E0089544E050E06EE170E08CE6CB
:1004600090E0C5D184E008958091720080936C0083
:1004700081E00895DF92EF92FF920F931F93CF9345
:10048000DF9308E010E0C0E0D0E8DD2EDC0ED1BE46
:1004900022DE7C0184E3E81689E0F8060CF4CD2D19
:1004A000D6950150110989F78FEF8C0F81BF0C2F62
:1004B00010E00F5F1F4F81B78017110669F064F0DD
:1004C000C1BF61B790E080E0DF91CF911F910F91A4
:1004D000FF90EF90DF90A3C1FEDD8453994097FF1A
:1004E00003C09195819591098E159F0514F4C1B7AC
:1004F0007C0181B78F5F81BFDECF1F920F920FB655
:100500000F9211242F938F939F9384B190E0909337
:1005100071008093700025B1922B909371008093AD
:1005200070009F918F912F910F900FBE0F901F9091
:10053000189590E080E06BD18F3F09F081BF88B3C0
:10054000836288BB87B3836287BB81E987B98CE804
:1005500086B97894BB9A84E1E2EBF1EF3197F1F739
:1005600000C000008150C1F7BB9888E19EE00FB643
:10057000F894A89581BD0FBE91BD34D17894D0E098
:10058000C0E0219609F4369AA89501D0FACFCF930E
:10059000DF9360918700635067FDA1C08091840064
:1005A000CCE0D0E0C81BD109C557DF4F8091830054
:1005B0008D3209F0DBC0683009F08FC083EC809386
:1005C00077008AE580936B001092760088818076B0
:1005D00071F0CE0117DF8F3F09F477C09F81911131
:1005E0007AC09E81981708F076C0892F74C02A813E
:1005F00010928000998191110AC01092810020E828
:1006000030E082E03093860020938500E7CF95307C
:1006100029F42093880020E830E0F4CF963009F0E8
:1006200043C09B81913059F484E390E0909386001D
:100630008093850090E482E190937600CFCF923052
:1006400019F482E290E0F2CF933061F5211109C0F4
:1006500088E690E0909386008093850090E484E0A3
:10066000EBCF213049F482E590E0909386008093AF
:10067000850090E486E1E0CF223049F486E490E002
:10068000909386008093850090E48CE0D5CF233052
:1006900049F480E690E0909386008093850090E096
:1006A0008AE0CACF90E4C8CF983059F0993019F455
:1006B00020938A00B0CF81E09A3009F4ACCF80E07B
:1006C000AACF2AE830E081E09DCF988197FD8E8106
:1006D00090E89093760080936A0010928700809152
:1006E0006B0084FF2BC0C0916A00CF3F39F16C2FA3
:1006F000C93008F068E08C2F861B80936A008091D7
:10070000770098E8892780937700CC2359F02091CF
:10071000760027FF3DC088E790E041DEC82F893092
:1007200008F05BC06C2F88E790E0D1DCCC5FCC3068
:1007300019F08FEF80936A00C0936B0084E196B349
:10074000987131F48150D9F710928800109282008C
:10075000C1E08111C0E090917500C91721F08111AD
:1007600089DEC0937500DF91CF9108958091760066
:1007700087FFB3CFCE012FDE8F3F21F48EE1809330
:100780006B00ABCF882309F4A8CF10926A00A5CFE5
:10079000809185009091860026FF16C0A8E7B0E002
:1007A000FC01262F34913D9331962150D9F72FEF3C
:1007B000260F30E02F5F3F4F820F931F90938600EC
:1007C00080938500C62FAECFDC01E8E7F0E0262F4E
:1007D0003D9131932150E1F7EACF8FEF80936A008A
:1007E000CEE1AACFAC9A8BB780628BBF0895FB0194
:1007F000DC0102C005900D9241505040D8F7089599
:10080000DC0101C06D9341505040E0F70895E1993B
:10081000FECF9FBB8EBBE09A99278DB30895262FFC
:10082000E199FECF1CBA9FBB8EBB2DBB0FB6F894CF
:0E083000E29AE19A0FBE01960895F894FFCF68
:0C083E000A033100320033003400FF5A7E
:00000001FF
