:10000000B5C0CFC0FBC0CDC0CCC0CBC0CAC0C9C07A
:10001000A1C3C7C0C6C0C5C0C4C0C3C0C2C0000160
:1000200001010101010101010101010101010101C0
:1000300002020202020202020202020202020202A0
:100040000202020202020202030303030303030388
:100050000303030303030304040404040404040467
:10006000040404050505050505050505060606063F
:10007000060606060707070707070708080808080F
:100080000909090909090A0A0A0A0B0B0B0B0C0CCE
:100090000C0C0D0D0D0D0E0E0E0F0F0F101010117C
:1000A000111112121313131414151516161717180D
:1000B0001819191A1A1B1B1C1D1D1E1F1F20212178
:1000C000222324242526272829292A2B2C2D2E2FAC
:1000D0003031323335363738393B3C3D3E40414391
:1000E000444647494A4C4E4F51535556585A5C5E08
:1000F00060626567696B6E707275787A7D808285E3
:10010000888B8E9194989B9EA2A5A9ADB0B4B8BCE3
:10011000C0C5C9CDD2D6DBE0E5EAEFF4FAFF0100B5
:10012000FF8E090212000101008064090400000032
:100130000000000012011001FF000008030431C696
:100140000001010203010C0354006F006B00650005
:100150006E0016034300680061006F00730020000A
:1001600057006500730074000403090411241FBEC6
:10017000CFE5D2E0DEBFCDBF10E0A0E6B0E0EAED13
:10018000F1E102C005900D92AE36B107D9F720E03B
:10019000AEE6B0E001C01D92A13EB207E1F7C3D1C7
:1001A0001AC82ECFA82FB92F80E090E041E050EA86
:1001B000609530E009C02D9182279795879510F0C2
:1001C00084279527305EC8F36F5FA8F30895EADFB0
:1001D0008D939D930895A6E088279927AA9569F0A5
:1001E0000197E1F3B399FCCFB39BFECF81E0992750
:1001F000A6B3019611F0A871D9F70895CF93CFB7A0
:10020000CF93C395B39BE9F7B39B0BC0B39B09C0D6
:10021000B39B07C0B39B05C0B39B03C0B39B01C096
:10022000D3C00F92DF93C091C400DD27C553DF4FC9
:10023000012EB39B03C0DF910F90E6CF2F930F9356
:100240001F934F932FEF4F6F06B303FB20F95F937C
:100250003F9350E03BE065C016B30126502953FDA3
:10026000C89556B3012703FB25F92F7306B3B1F0E8
:100270005027102713FB26F906B22230F0F000C0F9
:1002800016B3012703FB27F90126502906B22430B3
:10029000E8F54F77206816B30000F6CF50274F7D62
:1002A000206206B2102F000000C006B300265029BD
:1002B000102713FB26F906B2E2CF4F7B06B320646A
:1002C00000C0DACF01265029187106B269F14E7FBD
:1002D0002160012F16B328C0002650294D7F06B299
:1002E0002260102F29C0012650294B7F06B22460BE
:1002F000012F2DC016B301265029477F286000002A
:1003000006B22EC04F7E06B3206130C0422706B32E
:10031000499300265029102706B24FEF13FB20F90E
:10032000297F16B379F2187159F10126502906B2C6
:10033000012703FB21F9237F06B371F20026502920
:100340003150D0F006B2102713FB22F9277E16B3E6
:1003500051F201265029012703FB06B223F92F7C15
:1003600049F2000006B3102713FB24F90026502998
:1003700006B22F7939F270CF10E21ABF002717C0EA
:100380003B503195C31BD04010E21ABF0881033C9B
:10039000F9F00B34E9F02091C2001981110F12130A
:1003A000EDCF093651F10D3211F0013E39F70093CE
:1003B000C9003F915F914F911F910F912F91DF9154
:1003C0000F90CAB7C5FD1DCFCF91CFBFCF91189564
:1003D0002091C900222369F31091C700112321F550
:1003E000343022F13093C7002093C3001091C40031
:1003F0003BE0311B3093C40019C00091C7000130AD
:100400009CF40AE530916C0034FD11C000936C003F
:10041000C7EBD0E010C0052710E000C021C00527C1
:1004200010E0C89508BB14C03AE501C032ED032EB8
:10043000C0E0D0E032E017B31861C39A08B317BB2D
:1004400058E120E84FEF20FF052708BB27951795B7
:100450001C3F28F700004552B0F720FF05272795DD
:1004600008BB17951C3FB8F629913A9561F7077EAE
:100470001091C800110F08BBC250D04011F010936A
:10048000C20010E21ABF086017B3177E402F477EE4
:1004900054E05A95F1F708BB17BB48BB8ACF482FE9
:1004A000262F90E063E070E07AD4280F392F311DB9
:1004B000F901E458FF4F80816091A00070E090E066
:1004C0006ED46FEF70E088D4411104C0625E7F4F3C
:1004D000FB01649122573F4FF9016083442319F0D7
:1004E00081E080936E000895282F362F90E063E01E
:1004F00070E055D4830F911DFC01E458FF4F4083F9
:100500008F559F4FFC014083632F822FC8CFE62F6A
:1005100090E063E070E043D4E80FF92FF11DE45858
:10052000FF4F80810895EDD20DD188B3836288BBDF
:1005300087B3836287BB81E090E025D68093A000DB
:100540008FEF8093800010927F0010928100809343
:100550008300809382001092840010928600809322
:100560008500109287001092890010928800809375
:100570008A0080938C0010928B0080938D00C0E0E5
:1005800060E08C2F8CDF61E08C2F89DF62E08C2FA4
:1005900086DFCF5FC630A1F7512C10E000E0442485
:1005A0004A940F5F1F4F99F4D3D080916000882345
:1005B00071F082E0581609F452C0851598F1552063
:1005C00009F441C0E1E05E1609F444C053949091EF
:1005D0008F0080916F00891708F050C0C5989091E6
:1005E0008E0080916F00891708F04AC0C0989091E2
:1005F000900080916F00891708F044C0C198309036
:100600006F00339430926F008CE7A82E80E0B82EF4
:1006100091EAC92E90E0D92E7501332009F456C015
:100620008CD2BFCFF4E05F1621F15F16D8F085E0E1
:100630005812CCCF4092A1001092A2004092A30089
:1006400055245A94C3CF4092A1001092A200109258
:10065000A300BCCF4092A1004092A200F8CF10921C
:10066000A100FACF1092A1004092A2004092A300F4
:10067000ADCF1092A1001092A200F8CFC59AAFCFD3
:10068000C09AB5CFC19ABBCF8991F40191914F0126
:10069000981708F5FE01319781508083662D832DD0
:1006A000FEDEFFEF6F1A7F0A83E06816710461F7C0
:1006B0003394EFEFAE1ABE0AF3E0EF0EF11C83E0C5
:1006C000C80ED11CE6E03E1609F4AACF4601E701A8
:1006D000712C612CD9CFF501E60DF71D208129176A
:1006E00000F7FE0131978F5FD8CF8770833001F11B
:1006F00068F4813089F08230A1F048D04CD057D0D6
:100700009093B4008093B50082E008C08730A8F0D1
:10071000873099F781EA12C01092B4008093B30039
:1007200008959AE29093B4009AE39093B500F6CFBF
:1007300085E88093B40083EBE5CF8FEF8093B4001E
:1007400081E0ECCF81E987B98FE886B97894089584
:10075000369A08951F920F920FB60F9211242F937D
:100760008F939F9384B190E0909371008093700079
:1007700025B1922B90937100809370009F918F917F
:100780002F910F900FBE0F901F90189580917000C1
:10079000909171000895885C9109BC0190E080E01F
:1007A0002CD420E030E040EC50E493D30895CF9275
:1007B000DF92EF92FF920F931F93CF93DF936B0122
:1007C0007C0120E030E0A90180D387FF43C020E016
:1007D00030E040E85FE3C701B60112D3E2D3062F51
:1007E00010E0B801110F880B990B09D49B01AC01E3
:1007F000C701B60105D36B017C01D3E0C0E0CC0F8B
:1008000020E030E040E05FE3C701B601A8D487FFF5
:10081000C061A7019601C701B601F3D26B017C014B
:10082000C0D370E090E080E0EAD39B01AC01C70147
:10083000B601E6D26B017C01D15009F72C2F302F85
:10084000C901DF91CF911F910F91FF90EF90DF9041
:10085000CF900895C701B601C1CFFF920F931F93A8
:10086000CF93DF938C01C62F809176008130C1F544
:10087000809177008139B1F48091B300861708F434
:10088000C82FA4EBB0E0F8018E2F801B8C1738F036
:100890008C2FDF91CF911F910F91FF9008958D9133
:1008A0008193F2CF8538C9F4D091B600262F2D0F51
:1008B0003327331F2331310514F0C2E1CD1B83E010
:1008C000F82EDC1728F78D2F6F2D7AD2692F1FDEB7
:1008D000F80181938F01DF5FF4CFF801873851F081
:1008E0004C2F50E070E060E0C80146D4D1CF809139
:1008F000A00081938E2F801B8C17C8F3C9CFDF9285
:10090000EF92FF920F931F93CF93DF93EC01162F7B
:10091000462F50E080917600813009F04FC08091E1
:100920007800909179008417950708F4182F80912A
:100930007700803959F48881D8DE812FDF91CF91FB
:100940001F910F91FF90EF90DF9008958438E1F4AC
:1009500088818093B60000E0812F8150990B7C0143
:1009600083E0D82E202F30E02E153F0534F78091FC
:10097000B600800F2C0F3D1F6D2D22D2F901408152
:10098000692FB2DD0F5FEECF8638B9F6123008F06E
:100990002196688181E090E0FED388818093A00059
:1009A000C0E060E08C2F7BDD61E08C2F78DD62E0C1
:1009B0008C2F75DDCF5FC630A1F7BFCF70E060E050
:1009C000CE01DAD3BACFFC0182E790E09093C60063
:1009D0008093C5008181833009F44AC030F48823B4
:1009E000F1F0813021F180E008958830E0F79481C2
:1009F000990F828180FD916081E08093760026814D
:100A0000378130937900209378009838C8F496386D
:100A1000D8F4943828F582E08093760015C082815E
:100A20008093720083818093730082E0089544E094
:100A300050E06EE171E082E790E095D384E00895A4
:100A400080E7890F823038F780917600813059F441
:100A50009093770081E0232B09F480E0819508953D
:100A600010926000F1CF1092790010927800F2CFCE
:100A7000809176008093720081E00895DF92EF927A
:100A8000FF920F931F93CF93DF9308E010E0C0E035
:100A9000D0E8DD2EDC0ED1BE9EDB7C0184E3E816BF
:100AA00089E0F8060CF4CD2DD6950150110989F78F
:100AB0008FEF8C0F81BF0C2F10E00F5F1F4F81B79E
:100AC0008017110669F064F0C1BF61B790E080E063
:100AD000DF91CF911F910F91FF90EF90DF906DC349
:100AE0007ADB8453994097FF03C0919581959109D2
:100AF0008E159F0514F4C1B77C0181B78F5F81BF4C
:100B0000DECF90E080E03FD38F3F09F081BFBB9AFA
:100B100084E1E2EBF1EF3197F1F700C00000815082
:100B2000C1F7BB9888E19EE00FB6F894A89581BD07
:100B30000FBE91BD2FD178940895A89500C0CF9392
:100B4000DF936091C700635067FDA1C08091C4002E
:100B5000CCE0D0E0C81BD109C553DF4F8091C30062
:100B60008D3209F0DBC0683009F08FC083EC8093D0
:100B7000B7008AE580936C0010927B0088818076B4
:100B800071F0CE0120DF8F3F09F477C09F81911172
:100B90007AC09E81981708F076C0892F74C02A8188
:100BA0001092C000998191110AC01092C10020ECEE
:100BB00030E082E03093C6002093C500E7CF953047
:100BC00029F42093C80020EC30E0F4CF963009F0EF
:100BD00043C09B81913059F484E391E09093C60027
:100BE0008093C50090E482E190937B00CFCF923058
:100BF00019F482E291E0F2CF933061F5211109C03E
:100C000088E691E09093C6008093C50090E484E06C
:100C1000EBCF213049F482E591E09093C6008093B8
:100C2000C50090E486E1E0CF223049F486E491E00B
:100C30009093C6008093C50090E48CE0D5CF23301C
:100C400049F481E690E09093C6008093C50090E05F
:100C50008AE0CACF90E4C8CF983059F0993019F49F
:100C60002093CA00B0CF81E09A3009F4ACCF80E085
:100C7000AACF2AEC30E081E09DCF988197FD8E814C
:100C800090E890937B0080936B001092C700809156
:100C90006C0084FF2BC0C0916B00CF3F39F16C2FEB
:100CA000C93008F068E08C2F861B80936B00809120
:100CB000B70098E889278093B700CC2359F020919A
:100CC0007B0027FF3DC088EB90E0C7DDC82F89304F
:100CD00008F05BC06C2F88EB90E079DACC5FCC3009
:100CE00019F08FEF80936B00C0936C0084E196B392
:100CF000987131F48150D9F71092C8001092C20057
:100D0000C1E08111C0E090917A00C91721F08111F2
:100D1000B5DEC0937A00DF91CF91089580917B007A
:100D200087FFB3CFCE01EBDD8F3F21F48EE18093BF
:100D30006C00ABCF882309F4A8CF10926B00A5CF2D
:100D40008091C5009091C60026FF16C0A8EBB0E0C8
:100D5000FC01262F34913D9331962150D9F72FEF86
:100D6000260F30E02F5F3F4F820F931F9093C600F6
:100D70008093C500C62FAECFDC01E8EBF0E0262F54
:100D80003D9131932150E1F7EACF8FEF80936B00D3
:100D9000CEE1AACFAC9A8BB780628BBF08950024B6
:100DA000552704C0080E591F880F991F009729F076
:100DB00076956795B8F37105B9F7802D952F08954D
:100DC000991B79E004C0991F961708F0961B881F9D
:100DD0007A95C9F780950895AA1BBB1B51E107C0FE
:100DE000AA1FBB1FA617B70710F0A61BB70B881FBB
:100DF000991F5A95A9F780959095BC01CD0108954A
:100E00005058BB27AA270ED070C161D130F066D1EF
:100E100020F031F49F3F11F41EF456C10EF4E0951A
:100E2000E7FB4CC1E92F72D180F3BA176207730751
:100E30008407950718F071F49EF58AC10EF4E095C9
:100E40000B2EBA2FA02D0B01B90190010C01CA0184
:100E5000A0011124FF27591B99F0593F50F4503E2F
:100E600068F11A16F040A22F232F342F4427585F21
:100E7000F3CF469537952795A795F0405395C9F739
:100E80007EF41F16BA0B620B730B840BBAF09150F1
:100E9000A1F0FF0FBB1F661F771F881FC2F70EC090
:100EA000BA0F621F731F841F48F487957795679563
:100EB000B795F7959E3F08F0B3CF9395880F08F04C
:100EC0009927EE0F979587950895D4D008F481E07F
:100ED00008950CD00AC102D140F0F9D030F021F4CD
:100EE0005F3F19F0EBC0511134C1EEC00FD198F340
:100EF0009923C9F35523B1F3951B550BBB27AA279B
:100F000062177307840738F09F5F5F4F220F331F0C
:100F1000441FAA1FA9F333D00E2E3AF0E0E830D0D8
:100F200091505040E695001CCAF729D0FE2F27D0DB
:100F3000660F771F881FBB1F261737074807AB07A9
:100F4000B0E809F0BB0B802DBF01FF2793585F4F1E
:100F50002AF09E3F510568F0B1C0FBC05F3FECF343
:100F6000983EDCF3869577956795B795F7959F5FE3
:100F7000C9F7880F911D9695879597F90895E1E037
:100F8000660F771F881FBB1F621773078407BA0796
:100F900020F0621B730B840BBA0BEE1F88F7E095F1
:100FA0000895BCD088F09F5790F0B92F9927B7517A
:100FB000A0F0D1F0660F771F881F991F1AF0BA951D
:100FC000C9F712C0B13081F0C3D0B1E00895C0C0FC
:100FD000672F782F8827B85F39F0B93FCCF3869513
:100FE00077956795B395D9F73EF490958095709570
:100FF00061957F4F8F4F9F4F0895E89409C097FBED
:101000003EF490958095709561957F4F8F4F9F4FDF
:101010009923A9F0F92F96E9BB279395F695879523
:1010200077956795B795F111F8CFFAF4BB0F11F4E6
:1010300060FF1BC06F5F7F4F8F4F9F4F16C088238D
:1010400011F096E911C0772321F09EE8872F762FC3
:1010500005C0662371F096E8862F70E060E02AF004
:101060009A95660F771F881FDAF7880F96958795F0
:1010700097F90895990F0008550FAA0BE0E8FEEFC5
:1010800016161706E807F907C0F012161306E4074C
:10109000F50798F0621B730B840B950B39F40A2645
:1010A00061F0232B242B252B21F408950A2609F423
:1010B000A140A6958FEF811D811D089597F99F6727
:1010C00080E870E060E008959FEF80EC08950024D0
:1010D0000A941616170618060906089500240A949D
:1010E00012161306140605060895092E0394000C23
:1010F00011F4882352F0BB0F40F4BF2B11F460FFB2
:1011000004C06F5F7F4F8F4F9F4F089557FD9058DA
:10111000440F551F59F05F3F71F04795880F97FBBB
:10112000991F61F09F3F79F0879508951216130675
:101130001406551FF2CF4695F1DF08C016161706A4
:101140001806991FF1CF86957105610508940895D9
:10115000E894BB2766277727CB0197F908958ADFA4
:1011600008F48FEF0895FB01DC0102C005900D9299
:1011700041505040D8F70895DC0101C06D934150B3
:101180005040E0F70895E199FECF9FBB8EBBE09AF7
:1011900099278DB30895262FE199FECF9FBB8EBB73
:1011A000E09A01970DB2021639F01CBA2DBB0FB6AA
:1011B000F894E29AE19A0FBE0895262FE199FECFA6
:1011C0001CBA9FBB8EBB2DBB0FB6F894E29AE19A76
:0A11D0000FBE01960895F894FFCFBA
:0E11DA00010A033100320033003400FF5A00D6
:00000001FF
