:1000000035C04FC07BC04DC04CC04BC04AC049C07A
:100010001BC247C046C045C044C043C042C00100E7
:10002000FF8E090212000101008064090400000033
:100030000000000012011001FF000008030431C697
:100040000001010203010C0354006F006B00650006
:100050006E0016034300680061006F00730020000B
:1000600057006500730074000403090411241FBEC7
:10007000CFE5D2E0DEBFCDBF10E0A0E6B0E0E4EC1B
:10008000FDE002C005900D92AC36B107D9F720E033
:10009000ACE6B0E001C01D92A03CB207E1F77FD111
:1000A0008FC6AECFA82FB92F80E090E041E050EA94
:1000B000609530E009C02D9182279795879510F0C3
:1000C00084279527305EC8F36F5FA8F30895EADFB1
:1000D0008D939D930895A6E088279927AA9569F0A6
:1000E0000197E1F3B399FCCFB39BFECF81E0992751
:1000F000A6B3019611F0A871D9F70895CF93CFB7A1
:10010000CF93C395B39BE9F7B39B0BC0B39B09C0D7
:10011000B39B07C0B39B05C0B39B03C0B39B01C097
:10012000D3C00F92DF93C091A300DD27C655DF4FE8
:10013000012EB39B03C0DF910F90E6CF2F930F9357
:100140001F934F932FEF4F6F06B303FB20F95F937D
:100150003F9350E03BE065C016B30126502953FDA4
:10016000C89556B3012703FB25F92F7306B3B1F0E9
:100170005027102713FB26F906B22230F0F000C0FA
:1001800016B3012703FB27F90126502906B22430B4
:10019000E8F54F77206816B30000F6CF50274F7D63
:1001A000206206B2102F000000C006B300265029BE
:1001B000102713FB26F906B2E2CF4F7B06B320646B
:1001C00000C0DACF01265029187106B269F14E7FBE
:1001D0002160012F16B328C0002650294D7F06B29A
:1001E0002260102F29C0012650294B7F06B22460BF
:1001F000012F2DC016B301265029477F286000002B
:1002000006B22EC04F7E06B3206130C0422706B32F
:10021000499300265029102706B24FEF13FB20F90F
:10022000297F16B379F2187159F10126502906B2C7
:10023000012703FB21F9237F06B371F20026502921
:100240003150D0F006B2102713FB22F9277E16B3E7
:1002500051F201265029012703FB06B223F92F7C16
:1002600049F2000006B3102713FB24F90026502999
:1002700006B22F7939F270CF10E21ABF002717C0EB
:100280003B503195C31BD04010E21ABF0881033C9C
:10029000F9F00B34E9F02091A1001981110F12132C
:1002A000EDCF093651F10D3211F0013E39F70093CF
:1002B000A8003F915F914F911F910F912F91DF9176
:1002C0000F90CAB7C5FD1DCFCF91CFBFCF91189565
:1002D0002091A800222369F31091A600112321F593
:1002E000343022F13093A6002093A2001091A30095
:1002F0003BE0311B3093A30019C00091A6000130F0
:100300009CF40AE530916B0034FD11C000936B0042
:10031000C6E9D0E010C0052710E000C021C00527C5
:1003200010E0C89508BB14C03AE501C032ED032EB9
:10033000C0E0D0E032E017B31861C39A08B317BB2E
:1003400058E120E84FEF20FF052708BB27951795B8
:100350001C3F28F700004552B0F720FF05272795DE
:1003600008BB17951C3FB8F629913A9561F7077EAF
:100370001091A700110F08BBC250D04011F010938C
:10038000A10010E21ABF086017B3177E402F477E06
:1003900054E05A95F1F708BB17BB48BB8ACF4CD045
:1003A000A8D188B3836288BB87B3836287BB8FEF92
:1003B00080937800109277001092790080937B00F0
:1003C00080937A0010927C0010927E0080937D00D2
:1003D00010927F0010928100109280008093820022
:1003E00080938400109283008093850065E070E024
:1003F00087E790E0FDD22FE089E095E02150804032
:100400009040E1F700C0000065E070E087E790E011
:10041000EFD22FE089E095E0215080409040E1F755
:1004200000C0000088B3836288BBD0E0C0E02196A2
:1004300009F408D07AD1FBCF81E987B98CE886B975
:1004400078940895369A08951F920F920FB60F92DE
:1004500011242F938F939F9384B190E090936D001C
:1004600080936C0025B1922B90936D0080936C006B
:100470009F918F912F910F900FBE0F901F90189505
:1004800080916C0090916D000895885C9109BC0189
:1004900090E080E0B9D320E030E040EC50E420D39D
:1004A0000895CF92DF92EF92FF920F931F93CF9315
:1004B000DF936B017C017CD3062F10E0B801110F94
:1004C000880B990BA3D39B01AC01C701B601A3D242
:1004D0006B017C01D4E0C0E0CC0FA7019601C701FD
:1004E000B6019AD26B017C0120E030E040E85FE386
:1004F00019D487FFC061D15079F72C2F302FC90153
:10050000DF91CF911F910F91FF90EF90DF90CF90EF
:100510000895CF93C62F462F50E0209172002130CE
:10052000D9F420917300309174002417350708F432
:10053000C22FA6E8B0E0FC019E2F981B9C1748F044
:100540002C1B310930937400209373008C2FCF91B2
:1005500008959D919193F0CF70E060E014D4F6CFB0
:10056000CF93C62F462F50E020917200213089F49E
:1005700080917300909174008417950708F4C82F38
:100580008C1B910990937400809373008C2FCF91F2
:10059000089570E060E0F7D3F9CFCF93DF93EC01DB
:1005A0008EE690E09093A5008093A400898183302B
:1005B00009F456C038F48823E1F1813009F443C0CE
:1005C00080E03EC08830E0F78C81880F9A8190FDF2
:1005D000816091E0909372002E813F81309374008E
:1005E000209373008039A9F08139B1F549DF4DDFDF
:1005F00058DF9093860080938700809173009091DC
:100600007400039730F082E090E090937400809340
:10061000730080917200813021F01092740010926A
:10062000730081E02E813F81232B09F480E08195C6
:1006300007C08A8180936E008B8180936F0082E077
:10064000DF91CF91089544E050E06EE170E08EE6D6
:1006500090E090D384E0F4CF82E080937200D9CF11
:100660008091720080936E0081E0EACFDF92EF927A
:10067000FF920F931F93CF93DF9308E010E0C0E049
:10068000D0E8DD2EDC0ED1BE26DD7C0184E3E81649
:1006900089E0F8060CF4CD2DD6950150110989F7A3
:1006A0008FEF8C0F81BF0C2F10E00F5F1F4F81B7B2
:1006B0008017110669F064F0C1BF61B790E080E077
:1006C000DF91CF911F910F91FF90EF90DF906AC360
:1006D00002DD8453994097FF03C09195819591095C
:1006E0008E159F0514F4C1B77C0181B78F5F81BF60
:1006F000DECF90E080E04ED38F3F09F081BFBB9A00
:1007000084E1E2EBF1EF3197F1F700C00000815096
:10071000C1F7BB9888E19EE00FB6F894A89581BD1B
:100720000FBE91BD2FD178940895A89500C0CF93A6
:10073000DF936091A600635067FDA1C08091A30084
:10074000CCE0D0E0C81BD109C655DF4F8091A20094
:100750008D3209F0DBC0683009F08FC083EC8093E4
:1007600096008AE580936B001092760088818076EF
:1007700071F0CE0112DF8F3F09F477C09F81911194
:100780007AC09E81981708F076C0892F74C02A819C
:1007900010929F00998191110AC01092A0002FE938
:1007A00030E082E03093A5002093A400E7CF95309D
:1007B00029F42093A7002FE930E0F4CF963009F018
:1007C00043C09B81913059F484E390E09093A5005D
:1007D0008093A40090E482E190937600CFCF923092
:1007E00019F482E290E0F2CF933061F5211109C053
:1007F00088E690E09093A5008093A40090E484E0C4
:10080000EBCF213049F482E590E09093A5008093EE
:10081000A40090E486E1E0CF223049F486E490E041
:100820009093A5008093A40090E48CE0D5CF233072
:1008300049F480E690E09093A5008093A40090E0B6
:100840008AE0CACF90E4C8CF983059F0993019F4B3
:100850002093A900B0CF81E09A3009F4ACCF80E0BA
:10086000AACF29EA30E081E09DCF988197FD8E8163
:1008700090E89093760080936A001092A600809191
:100880006B0084FF2BC0C0916A00CF3F39F16C2F01
:10089000C93008F068E08C2F861B80936A00809135
:1008A000960098E8892780939600CC2359F02091F0
:1008B000760027FF3DC087E990E02BDEC82F893006
:1008C00008F05BC06C2F87E990E001DCCC5FCC3096
:1008D00019F08FEF80936A00C0936B0084E196B3A8
:1008E000987131F48150D9F71092A7001092A100AD
:1008F000C1E08111C0E090917500C91721F081110C
:10090000B5DEC0937500DF91CF9108958091760098
:1009100087FFB3CFCE0124DE8F3F21F48EE1809399
:100920006B00ABCF882309F4A8CF10926A00A5CF43
:100930008091A4009091A50026FF16C0A7E9B0E021
:10094000FC01262F34913D9331962150D9F72FEF9A
:10095000260F30E02F5F3F4F820F931F9093A5002B
:100960008093A400C62FAECFDC01E7E9F0E0262F8C
:100970003D9131932150E1F7EACF8FEF80936A00E8
:10098000CEE1AACFAC9A8BB780628BBF089538B303
:10099000242F2095232338B3432B3FB7F894FC0131
:1009A000680F791FE617F70711F43FBF089581918B
:1009B00098E048BB000000C087FF28BB880F00C03C
:1009C00000C000C000C028BB00C09A9591F7EACFD4
:1009D0009C0197B3942B97BBCB0163E070E00AD0E6
:1009E000BC01C901D4DF8EEC90E00197F1F70895C6
:1009F00042E0EECF0024552704C0080E591F880F8F
:100A0000991F009729F076956795B8F37105B9F7A6
:100A1000802D952F08955058BB27AA270ED048C186
:100A200039D130F03ED120F031F49F3F11F41EF463
:100A30002EC10EF4E095E7FB24C1E92F4AD180F3E3
:100A4000BA17620773078407950718F071F49EF5CB
:100A500062C10EF4E0950B2EBA2FA02D0B01B90147
:100A600090010C01CA01A0011124FF27591B99F024
:100A7000593F50F4503E68F11A16F040A22F232F30
:100A8000342F4427585FF3CF469537952795A79580
:100A9000F0405395C9F77EF41F16BA0B620B730B27
:100AA000840BBAF09150A1F0FF0FBB1F661F771F98
:100AB000881FC2F70EC0BA0F621F731F841F48F44D
:100AC000879577956795B795F7959E3F08F0B3CFD3
:100AD0009395880F08F09927EE0F979587950895BD
:100AE0000CD0E6C0DED040F0D5D030F021F45F3F2E
:100AF00019F0C7C0511110C1CAC0EBD098F39923A7
:100B0000C9F35523B1F3951B550BBB27AA276217D1
:100B10007307840738F09F5F5F4F220F331F441F16
:100B2000AA1FA9F333D00E2E3AF0E0E830D091504E
:100B30005040E695001CCAF729D0FE2F27D0660F3B
:100B4000771F881FBB1F261737074807AB07B0E87A
:100B500009F0BB0B802DBF01FF2793585F4F2AF090
:100B60009E3F510568F08DC0D7C05F3FECF3983EC3
:100B7000DCF3869577956795B795F7959F5FC9F7ED
:100B8000880F911D9695879597F90895E1E0660F76
:100B9000771F881FBB1F621773078407BA0720F0EF
:100BA000621B730B840BBA0BEE1F88F7E095089558
:100BB00098D088F09F5790F0B92F9927B751A0F09F
:100BC000D1F0660F771F881F991F1AF0BA95C9F7E1
:100BD00012C0B13081F09FD0B1E008959CC0672F62
:100BE000782F8827B85F39F0B93FCCF38695779591
:100BF0006795B395D9F73EF490958095709561957A
:100C00007F4F8F4F9F4F0895E89409C097FB3EF4A4
:100C100090958095709561957F4F8F4F9F4F992349
:100C2000A9F0F92F96E9BB279395F69587957795C7
:100C30006795B795F111F8CFFAF4BB0F11F460FF87
:100C40001BC06F5F7F4F8F4F9F4F16C0882311F0DF
:100C500096E911C0772321F09EE8872F762F05C0F3
:100C6000662371F096E8862F70E060E02AF09A958E
:100C7000660F771F881FDAF7880F9695879597F983
:100C8000089597F99F6780E870E060E008959FEF0E
:100C900080EC089500240A94161617061806090613
:100CA000089500240A9412161306140605060895E2
:100CB000092E0394000C11F4882352F0BB0F40F46A
:100CC000BF2B11F460FF04C06F5F7F4F8F4F9F4FAA
:100CD000089557FD9058440F551F59F05F3F71F02C
:100CE0004795880F97FB991F61F09F3F79F0879593
:100CF0000895121613061406551FF2CF4695F1DF1C
:100D000008C0161617061806991FF1CF86957105AB
:100D1000610508940895E894BB2766277727CB01DF
:100D200097F9089503D008F48FEF0895990F0008FC
:100D3000550FAA0BE0E8FEEF16161706E807F907AD
:100D4000C0F012161306E407F50798F0621B730B48
:100D5000840B950B39F40A2661F0232B242B252BC9
:100D600021F408950A2609F4A140A6958FEF811D6C
:100D7000811D0895FB01DC0102C005900D924150D8
:100D80005040D8F70895DC0101C06D9341505040A8
:100D9000E0F70895E199FECF9FBB8EBBE09A9927BB
:100DA0008DB30895262FE199FECF1CBA9FBB8EBB51
:100DB0002DBB0FB6F894E29AE19A0FBE0196089502
:040DC000F894FFCFD5
:0C0DC4000A033100320033003400FF5AF3
:00000001FF
