:100000008EC0A8C0D4C0A6C0A5C0A4C0A3C0A2C0B2
:10001000A1C0A0C031C29EC09DC09CC09BC00001B9
:1000200001010101010101010101010101010101C0
:1000300002020202020202020202020202020202A0
:100040000202020202020202030303030303030388
:100050000303030303030304040404040404040467
:10006000040404050505050505050505060606063F
:10007000060606060707070707070708080808080F
:100080000909090909090A0A0A0A0B0B0B0B0C0CCE
:100090000C0C0D0D0D0D0E0E0E0F0F0F101010117C
:1000A000111112121313131414151516161717180D
:1000B0001819191A1A1B1B1C1D1D1E1F1F20212178
:1000C000222324242526272829292A2B2C2D2E2FAC
:1000D0003031323335363738393B3C3D3E40414391
:1000E000444647494A4C4E4F51535556585A5C5E08
:1000F00060626567696B6E707275787A7D808285E3
:10010000888B8E9194989B9EA2A5A9ADB0B4B8BCE3
:10011000C0C5C9CDD2D6DBE0E5EAEFF4FAFF112481
:100120001FBECFE5D2E0DEBFCDBF10E0A0E6B0E05D
:10013000E0E9F5E002C005900D92A236B107D9F7CB
:1001400020E0A2E6B0E001C01D92A339B207E1F7BA
:10015000E5D11CC255CFA82FB92F80E090E041E037
:1001600050EA609530E009C02D91822797958795D8
:1001700010F084279527305EC8F36F5FA8F30895C9
:10018000EADF8D939D930895A6E088279927AA9585
:1001900069F00197E1F3B399FCCFB39BFECF81E007
:1001A0009927A6B3019611F0A871D9F70895CF93B6
:1001B000CFB7CF93C395B39BE9F7B39B0BC0B39B6A
:1001C00009C0B39B07C0B39B05C0B39B03C0B39BDF
:1001D00001C0D3C00F92DF93C0917600DD27C358D2
:1001E000DF4F012EB39B03C0DF910F90E6CF2F931B
:1001F0000F931F934F932FEF4F6F06B303FB20F91D
:100200005F933F9350E03BE065C016B30126502951
:1002100053FDC89556B3012703FB25F92F7306B389
:10022000B1F05027102713FB26F906B22230F0F068
:1002300000C016B3012703FB27F90126502906B297
:100240002430E8F54F77206816B30000F6CF50272A
:100250004F7D206206B2102F000000C006B30026BA
:100260005029102713FB26F906B2E2CF4F7B06B3C5
:10027000206400C0DACF01265029187106B269F156
:100280004E7F2160012F16B328C0002650294D7FD4
:1002900006B22260102F29C0012650294B7F06B2DA
:1002A0002460012F2DC016B301265029477F2860F6
:1002B000000006B22EC04F7E06B3206130C0422738
:1002C00006B3499300265029102706B24FEF13FBBF
:1002D00020F9297F16B379F2187159F101265029B6
:1002E00006B2012703FB21F9237F06B371F2002632
:1002F00050293150D0F006B2102713FB22F9277E87
:1003000016B351F201265029012703FB06B223F947
:100310002F7C49F2000006B3102713FB24F90026B6
:10032000502906B22F7939F270CF10E21ABF002798
:1003300017C03B503195C31BD04010E21ABF088153
:10034000033CF9F00B34E9F0209174001981110F8E
:100350001213EDCF093651F10D3211F0013E39F78C
:1003600000937B003F915F914F911F910F912F91CF
:10037000DF910F90CAB7C5FD1DCFCF91CFBFCF91F1
:10038000189520917B00222369F3109179001123A5
:1003900021F5343022F130937900209375001091CB
:1003A00076003BE0311B3093760019C00091790054
:1003B00001309CF40AE53091600034FD11C00093D7
:1003C0006000C9E6D0E010C0052710E000C021C0E1
:1003D000052710E0C89508BB14C03AE501C032ED0E
:1003E000032EC0E0D0E032E017B31861C39A08B31F
:1003F00017BB58E120E84FEF20FF052708BB2795E2
:1004000017951C3F28F700004552B0F720FF05273D
:10041000279508BB17951C3FB8F629913A9561F7C7
:10042000077E10917A00110F08BBC250D04011F026
:100430001093740010E21ABF086017B3177E402FA4
:10044000477E54E05A95F1F708BB17BB48BB8ACFEB
:10045000369A3699FECF85B10895E62FF0E0E25E38
:10046000FF4FE49190E0DC01AA59BF4FEC938D5906
:100470009F4FDC01EC9308951F920F920FB60F92DD
:1004800011248F939F93AF93BF93CF93DF93EF93F9
:10049000FF939091660080916200891798F5C59846
:1004A0009091670080916200891770F5C0989091D3
:1004B000680080916200891748F5C19880916200B8
:1004C0008F5F80936200811110C0E6E6F0E0A3E642
:1004D000B0E081919D919817D8F4EF012197815058
:1004E000888380E0E936F807A1F7FF91EF91DF916B
:1004F000CF91BF91AF919F918F910F900FBE0F90B1
:100500001F901895C59ACCCFC09AD1CFC19AD6CF9B
:10051000891738F7EF0121978F5FE2CF88B38362A5
:1005200088BB87B3836287BB81EB87B980E886B9D4
:1005300082E08ABD84E889BD80E189BF81E083BF14
:1005400078946FE780E089DF6FE782E086DF80DF05
:100550008935C0F48A34C0F0E8EBE80F8E2F82951D
:10056000807F8E2BE82FF0E0E25EFF4FE491E09376
:1005700063008095E82FF0E0E25EFF4FE491E093A6
:100580006500E5CF8FEFEECF80E0ECCFF894FFCFA2
:020590005A000F
:00000001FF
